:0A0F3A000001020203030404050590
:10058300E4F513F512F511F510C203C200C202C25D
:1005930001120E8A7E087F348E238F24752B0875F3
:1005A3002C46752108752250752908752A70752DFA
:1005B30008752E90EE54E070030206D17514007591
:1005C30015808E168F17C374C29FFF74089ECF24A5
:1005D30002CF3400FEE48F0F8E0EF50DF50CF50BF4
:1005E300F50AF509F508AF0FAE0EAD0DAC0CAB0B6C
:1005F300AA0AA909A808C3120B6D502AE515250BF1
:10060300F582E514350AF58374CDF0E4FAF9F8E5DB
:100613000B2401F50BEA350AF50AE93509F509E872
:100623003508F50880C0E4F50BF50AF509F508AFC0
:100633000FAE0EAD0DAC0CAB0BAA0AA909A808C3EB
:10064300120B6D5037E517250BF582E516350AF5C4
:1006530083E0FFE515250BF582E514350AF583EFF5
:10066300F0E4FAF9F8E50B2401F50BEA350AF50A8B
:10067300E93509F509E83508F50880B385142385BC
:10068300152474342480FF740834FFFEC3E52C9FC3
:10069300F52CE52B9EF52BC3E5269FF526E5259E38
:1006A300F525C3E5289FF528E5279EF527C3E52211
:1006B3009FF522E5219EF521C3E52A9FF52AE52929
:1006C3009EF529C3E52E9FF52EE52D9EF52DD2E847
:1006D30043D82090E668E04409F090E65CE0443DAE
:1006E300F0D2AF90E680E054F7F0538EF8C20330B7
:1006F3000105120080C2013003291208FE5024C2F2
:1007030003120E6520001690E682E030E704E02035
:10071300E1EF90E682E030E604E020E0E4120DE150
:08072300120F5C120BC980C724
:01072B0022AB
:1000800090E6B9E0700302015C14700302020524DB
:10009000FE700302029A24FB7003020156147003DF
:1000A00002015014700302014414700302014A2437
:1000B000056003020306120F5E400302031290E67E
:1000C000BBE024FE602C14604724FD6016146031F0
:1000D00024067066E52390E6B3F0E52490E6B4F0DC
:1000E000020312E52B90E6B3F0E52C90E6B4F002A3
:1000F0000312E52590E6B3F0E52690E6B4F002039E
:1001000012E52790E6B3F0E52890E6B4F00203127A
:1001100090E6BAE0FF120E0DAA06A9077B01EA4994
:100120004B600DEE90E6B3F0EF90E6B4F0020312F0
:1001300090E6A0E04401F002031290E6A0E0440142
:10014000F0020312120F16020312120F4C020312D6
:10015000120F44020312120F04020312120F604026
:100160000302031290E6B8E0247F602B14603C2465
:100170000260030201FBA200E433FF25E0FFA202BC
:10018000E4334F90E740F0E4A3F090E68AF090E685
:100190008B7402F0020312E490E740F0A3F090E6C3
:1001A0008AF090E68B7402F002031290E6BCE054F1
:1001B0007EFF7E00E0D3948040067C007D018004B9
:1001C0007C007D00EC4EFEED4F243AF582740F3E2C
:1001D000F583E493FF3395E0FEEF24A1FFEE34E6D0
:1001E0008F82F583E0540190E740F0E4A3F090E6BD
:1001F0008AF090E68B7402F002031290E6A0E044CD
:1002000001F0020312120F62400302031290E6B8DB
:10021000E024FE601D2402600302031290E6BAE0AF
:10022000B40105C20002031290E6A0E04401F0020E
:10023000031290E6BAE0705990E6BCE0547EFF7E6F
:1002400000E0D3948040067C007D0180047C007D2A
:1002500000EC4EFEED4F243AF582740F3EF583E438
:1002600093FF3395E0FEEF24A1FFEE34E68F82F595
:1002700083E054FEF090E6BCE05480FF1313135467
:100280001FFFE0540F2F90E683F0E04420F00203BC
:100290001290E6A0E04401F08078120F6450739051
:1002A000E6B8E024FE60202402706790E6BAE0B46D
:1002B0000104D200805C90E6BAE06402605490E6EB
:1002C000A0E04401F0804B90E6BCE0547EFF7E004D
:1002D000E0D3948040067C007D0180047C007D009A
:1002E000EC4EFEED4F243AF582740F3EF583E49315
:1002F000FF3395E0FEEF24A1FFEE34E68F82F58315
:10030000E04401F0800C12031A500790E6A0E0448C
:0903100001F090E6A0E04480F049
:0103190022C1
:030033000208FAC6
:0408FA0053D8EF32AE
:100834001201000200000040560404B0000001024E
:1008440000010A0600020000004001000902200025
:10085400010100A0960904000002FF000000070542
:1008640002020002000705860200020009022000BD
:10087400010100A0960904000002FF000000070522
:10088400010240000007058102400000040309043E
:100894001E0341006E0061006C006F0067002000C1
:1008A400440065007600690063006500730010036E
:1008B4004100440054003700340036003600000084
:100DE10090E682E030E004E020E60B90E682E0301D
:100DF100E119E030E71590E680E04401F07F147ED0
:0C0E010000120C1190E680E054FEF0227C
:100E650090E682E044C0F090E681F04387010000FF
:040E75000000002257
:020E0D00A90733
:100E0F00AE2DAF2E8F828E83A3E064037017AD01DA
:100E1F0019ED7001228F828E83E07C002FFDEC3E56
:090E2F00FEAF0580DF7E007F00AC
:010E38002297
:100C11008E188F1990E600E054187012E51924011E
:100C2100FFE43518C313F518EF13F519801590E695
:100C310000E05418FFBF100BE51925E0F519E51880
:100C410033F518E5191519AE18700215184E60051F
:060C5100120E7980EE2274
:100E79007400F58690FDA57C05A3E582458370F98C
:010E89002246
:03004300020900AF
:030053000209009F
:10090000020EA800020EEE00020ED800020EC00079
:100910000208C400020CD600020F6600020F670036
:10092000020F6800020F6900020F6A00020F6B00DD
:10093000020F6C00020F6D00020F6E00020F6F00BD
:10094000020F7000020F6700020F7100020F7200A9
:10095000020F7300020F7400020F7500020F760081
:10096000020F7700020F6700020F6700020F670097
:10097000020F7800020F7900020F7A00020F7B004D
:10098000020F7C00020F7D00020F7E00020F7F002D
:10099000020F8000020F8100020F8200020F83000D
:1009A000020F8400020F8500020F8600020F8700ED
:0809B000020F8800020F89000C
:100F2800013100013200C105013500012F000130F7
:010F380000B8
:100E8A0090E605E054FDF0D200120F5490E600E01F
:0E0E9A0054E74410F075B333E4F590F5B5223B
:100BC90090E67AE04401F0E52FC395315005439052
:100BD90001800AE52FC394C850035390FE052FE501
:100BE9002FB4C803E4F52FE530C39532500543907F
:100BF90002800AE530C394C850035390FD0530E5DF
:070C090030B4C803E4F5302C
:010C100022C1
:0208FE00D32203
:020F5C00D3229E
:020F5E00D3229C
:080F440090E6BAE0F536D32275
:100F040090E740E536F0E490E68AF090E68B04F052
:020F1400D322E6
:080F4C0090E6BAE0F533D32270
:100F160090E740E533F0E490E68AF090E68B04F043
:020F2600D322D4
:020F6000D3229A
:020F6200D32298
:020F6400D32296
:10031A0090E678E05410FFC4540F4450F53413E4C7
:10032A0033F53790E67AE054FEF090E6B9E02426F9
:10033A0070030204F324FE700302055314700302CF
:10034A00049C24FE700302044E14607C24026003A1
:10035A0002058190E6B8E064C0703190E6A0E02022
:10036A00E1F990E6BAE0F51890E6BCE0901002F0E8
:10037A0090E6BAE0FF90E6BCE0FD120AB790E740CB
:10038A00EFF0E490E68AF090E68B04F090E6B8E0AD
:10039A006440600302058190E68AF090E68BF09053
:1003AA00E6BAE0F51890E6BCE0901000F090E6BDE1
:1003BA00E0901001F090E6BAE0FF90E6BCE0FDA301
:1003CA00E0FB120C9802058190E6B8E064C0703434
:1003DA0090E6A0E020E1F990E6BAE0F51890E6BCD4
:1003EA00E0901002F090E6BAE0FF90E6BCE0FDA3D0
:1003FA00E0FB120A4490E740EFF0E490E68AF090BE
:10040A00E68B04F090E6B8E0644060030205819050
:10041A00E68AF090E68BF090E6BAE0F51890E6BC32
:10042A00E0901000F090E6BDE0901001F090E6BA7E
:10043A00E0FF90E6BCE0FDA3E0FBA3E0F51C120B95
:10044A007E02058190E6B8E0B4C02190E6A0E020E3
:10045A00E1F990E6BAE0F518E0FF120C5790E74090
:10046A00EFF0E490E68AF090E68B04F090E6B8E0CC
:10047A006440600302058190E68AF090E68BF09072
:10048A00E6BAE0F518E0FF90E6BCE0FD120D7D0249
:10049A00058190E6B8E0B4C02E90E6A0E020E1F92C
:1004AA0090E740E580F0A3E5B2F0A3E590F0A3E57C
:1004BA00B3F0A3E5B0F0A3E5B5F0E490E68AF090D6
:1004CA00E6BEE090E68BF090E6B8E0644060030296
:1004DA00058190E68AF090E68BF090E6BAE0F59016
:1004EA0090E6BCE0F5B302058190E6B8E0B4C0221C
:1004FA0090E6A0E020E1F990E740E531F0A3E5328B
:10050A00F0A3E590F0E490E68AF090E6BEE090E68B
:10051A008BF090E6B8E06440705D90E68AF090E671
:10052A008BF090E6BAE0B4010B90E6BCE0FF25E060
:10053A00F531800990E6BCE0FF25E0F532E490E66B
:10054A008AF090E68B04F0802E90E6B8E064C070E2
:10055A002690E6A0E020E1F990E6BAE0FF90E6BE38
:10056A00E0FD90E6BCE0FB120E39E490E68AF090DA
:08057A00E6BEE090E68BF0C341
:010582002256
:060E39008F198D1A8B1BBE
:100E3F00E4F51CE51CC3951A501BE51B251CFDAFE3
:100E4F0019120AB77440251CF582E434E7F583EFD5
:050E5F00F0051C80DE1F
:010E6400226B
:100C9800AC0790E678E020E6F990E678E04480F04A
:100CA800EC25E090E679F090E678E030E0F990E61F
:100CB80079EDF090E678E030E0F990E679EBF090A5
:0E0CC800E678E030E0F990E678E04440F02273
:100B7E00AC0790E678E020E6F990E678E04480F065
:100B8E00EC25E090E679F090E678E030E0F990E63A
:100B9E0079EDF090E678E030E0F990E679EBF090C0
:100BAE00E678E030E0F990E679E51CF090E678E042
:0B0BBE0030E0F990E678E04440F022BF
:020AB700AC078A
:100AB900E4F51EF51F90E678E020E6F990E678E087
:100AC9004480F0EC25E090E679F090E678E030E0BB
:100AD900F990E679EDF090E678E030E0F990E67883
:100AE900E04480F0EC25E0440190E679F090E67866
:100AF900E030E0F990E678E04420F090E679E0F51E
:100B09001D90E678E030E0F990E678E04440F09016
:040B1900E679E0FF9A
:010B1D0022B5
:020A4400AC07FD
:100A4600E4F51AF51B90E678E020E6F990E678E002
:100A56004480F0EC25E090E679F090E678E030E02E
:100A6600F990E679EDF090E678E030E0F990E679F5
:100A7600EBF090E678E030E0F990E678E04480F03C
:100A8600EC25E0440190E679F090E678E030E0F974
:100A960090E678E04420F090E679E0F51990E67863
:100AA600E030E0F990E678E04440F090E679E0FF47
:010AB600221D
:100D7D00AE0790E678E020E6F990E678E04480F062
:100D8D00EE25E090E679F090E678E030E0F990E637
:100D9D0079EDF090E678E030E0F990E678E04440C7
:020DAD00F02232
:020C5700AD07E7
:100C590090E678E020E6F990E678E04480F0ED252A
:100C6900E0440190E679F090E678E030E0F990E62A
:100C790078E04420F090E679E0F51990E678E030E4
:0E0C8900E0F990E678E04440F090E679E0FF74
:010C9700223A
:100EA800C0E0C083C082D2015391EF90E65D740127
:080EB800F0D082D083D0E032BB
:100ED800C0E0C083C0825391EF90E65D7404F0D007
:060EE80082D083D0E0324D
:100EEE00C0E0C083C0825391EF90E65D7402F0D0F3
:060EFE0082D083D0E03237
:1008C400C0E0C083C082852925852A2685268285A5
:1008D4002583A37402F08521278522288528828513
:1008E4002783A37407F05391EF90E65D7410F0D062
:0608F40082D083D0E03247
:100EC000C0E0C083C082D2035391EF90E65D740806
:080ED000F0D082D083D0E032A3
:100CD600C0E0C083C08290E680E030E72085212511
:100CE600852226852682852583A37402F0852927F9
:100CF600852A28852882852783A37407F05391EFD8
:0D0D060090E65D7420F0D082D083D0E03202
:010F66003258
:010F67003257
:010F68003256
:010F69003255
:010F6A003254
:010F6B003253
:010F6C003252
:010F6D003251
:010F6E003250
:010F6F00324F
:010F7000324E
:010F7100324D
:010F7200324C
:010F7300324B
:010F7400324A
:010F75003249
:010F76003248
:010F77003247
:010F78003246
:010F79003245
:010F7A003244
:010F7B003243
:010F7C003242
:010F7D003241
:010F7E003240
:010F7F00323F
:010F8000323E
:010F8100323D
:010F8200323C
:010F8300323B
:010F8400323A
:010F85003239
:010F86003238
:010F87003237
:010F88003236
:010F89003235
:080F5400E4F53DD2E9D2AF2221
:100D130090E678E020E6F9C2E990E678E04480F0D6
:100D2300EF25E090E679F090E678E030E0F990E6A0
:100D330078E04440F090E678E020E6F990E678E049
:060D430030E1D6D2E922E6
:100DAF00A90790E678E020E6F9E53D702390E67814
:100DBF00E04480F0E925E090E679F08D38AF03A9A3
:100DCF00077539018A3A893BE4F53C753D01D32219
:020DDF00C3222D
:100D4900A90790E678E020E6F9E53D702590E67878
:100D5900E04480F0E925E0440190E679F08D38AF70
:100D690003A9077539018A3A893BE4F53C753D03C6
:040D7900D322C3229C
:03004B0002072C7D
:10072C00C0E0C083C082C085C084C086758600C00E
:10073C00D075D000C000C001C002C003C006C00705
:10074C0090E678E030E206753D0602081690E678F1
:10075C00E020E10CE53D64026006753D07020816D9
:10076C00E53D24FE605F14603624FE70030208072A
:10077C0024FC700302081324086003020816AB392A
:10078C00AA3AA93BAF3C053C8F82758300120B1E25
:10079C0090E679F0E53C65387070753D05806B909E
:1007AC00E679E0AB39AA3AA93BAE3C8E8275830060
:1007BC00120B4B753D02E5386401704E90E678E003
:1007CC004420F08045E53824FEB53C0790E678E0FF
:1007DC004420F0E53814B53C0A90E678E04440F04B
:1007EC00753D0090E679E0AB39AA3AA93BAE3C8E58
:1007FC0082758300120B4B053C800F90E678E04429
:10080C0040F0753D008003753D005391DFD007D05B
:10081C0006D003D002D001D000D0D0D086D084D066
:08082C0085D082D083D0E032B8
:030000000209B83A
:0C09B800787FE4F6D8FD75813D0209FF50
:100B1E00BB010CE58229F582E5833AF583E022508C
:100B2E0006E92582F8E622BBFE06E92582F8E222D6
:0D0B3E00E58229F582E5833AF583E49322F0
:100B4B00F8BB010DE58229F582E5833AF583E8F0E0
:100B5B00225006E92582C8F622BBFE05E92582C88C
:020B6B00F22274
:100B6D00EB9FF5F0EA9E42F0E99D42F0E89C45F0DE
:010B7D002255
:1009C400020583E493A3F8E493A34003F68001F2C1
:1009D40008DFF48029E493A3F85407240CC8C33334
:1009E400C4540F4420C8834004F456800146F6DF03
:1009F400E4800B0102040810204080900F28E47E5C
:100A0400019360BCA3FF543F30E509541FFEE493F7
:100A1400A360010ECF54C025E060A840B8E493A3BE
:100A2400FAE493A3F8E493A3C8C582C8CAC583CAE9
:100A3400F0A3C8C582C8CAC583CADFE9DEE780BEA1
:010F390000B7
:00000001FF
